:020000020000FC
:1000000040EF40BB4FEF47B941B90FEF0DBF01E2E1
:100010000EBF0AE0902E04E6802E77240027AA2443
:10002000BB2408B902B908E379D092D0ADD008E377
:1000300075D08ED0A0D008E371D08AD008E36ED0FE
:1000400087D008E06BD084D001E068D081D006E092
:1000500065D07ED00EE062D07BD03FEE1127143009
:10006000E1F331BB4FEF4A95F1F74FB14F704F308D
:1000700059F021E06627643039F0542F522341F0C3
:100080006395220F0C943B00330F13950C942F00B3
:10009000133089F06330A9F0462F440F460F410F0B
:1000A0004F5FB99CC12DC03051F4B02CB40E38F064
:1000B000405D0C947A0041E4460F0C947A000C9455
:1000C000CA00103051F0113069F043E2AB9CC12DF1
:1000D000C030A9F7C02D0C943F014AE2AB2CBB24E1
:1000E0000C947A0040E3B99CC12DC03041F7B02C8C
:1000F0000C947A00042F1DD02BD070EC87E299E08D
:10010000AA27BB27DD24CC24A717B807D90620F4DB
:100110001196DC1C0000F8CF0C942D0008B90000EB
:10012000169A000000000000169800000000000071
:10013000089508B9179A000000000000169A000000
:1001400000000000169800000000000017980895B5
:100150000F93002707B908B9159A0000169A0000F6
:100160000000000006B1169807FDF7CF15980FEFB5
:1001700007B90F9108958F939F939FE08CE90197A2
:10018000F1F79F918F910895F6DFF5DFF4DFF3DF4C
:10019000F2DF089501E0C2DFDBDF0FE4CADFD8DF62
:1001A00006E5C7DFD5DF05E4C4DFD2DF02E5C1DF46
:1001B000CFDF06E4BEDFCCDF0CE4BBDFC9DF0FE43A
:1001C000B8DFC6DF07E5B5DFC3DF4FEF43BB44BB96
:1001D00070EC87E299E0AA27BB27DD24CC24A7177F
:1001E000B807D90620F41196DC1C0000F8CF44278C
:1001F00044BB70EC87E299E0AA27BB27DD24CC241E
:10020000A717B807D90620F41196DC1C0000F8CF18
:100210004FEF44BB70EC87E299E0AA27BB27DD24AF
:10022000CC24A717B807D90620F41196DC1C0000CF
:10023000F8CF442744BB70EC87E299E0AA27BB279C
:10024000DD24CC24A717B807D90620F41196DC1CAE
:100250000000F8CF4FEF44BB70EC87E299E0AA278B
:10026000BB27DD24CC24A717B807D90620F41196A4
:10027000DC1C0000F8CF442744BB0C94770101E05C
:100280004DDF66DF77278827992700C0C81518F04B
:10029000C4569F5FFBCFC91518F0CA508F5FFBCFC4
:1002A000C71519F0C1507F5FFBCF903071F0905DA2
:1002B000092F3FDF4DDF805D082F3BDF49DF705D99
:1002C000072F37DF45DF0C947701803051F0805DD8
:1002D000082F2FDF3DDF705D072F2BDF39DF0C94F8
:1002E0007701705D072F25DF33DF0C947701FFCF97
:00000001FF
