:020000020000FC
:100000000C9404000C9435000FEF0DBF01E20EBFFD
:100010000FEF00BB01B9002701BB02B908E361D0B3
:100020007AD095D008E35DD076D088D008E359D057
:1000300072D008E356D06FD008E053D06CD001E006
:1000400050D069D006E04DD066D00CE04AD063D0E5
:1000500052E0509369005DB351605DBB7894112705
:100060002227332744270C944C00143061F41127C5
:10007000293059F42227393051F43327493049F4D3
:1000800044270C944B00139506C0239504C0339568
:1000900002C0439500C0189571D001E022D03BD03A
:1000A000403019F4303029F408C0405D042F24D0CA
:1000B00032D0305D032F20D02ED0205D022F1CD0F7
:1000C0002AD052E7052F18D026D050E7052F14D09C
:1000D00022D053E7052F10D01ED0222733274427E4
:1000E000DBCF01BB0000169A00000000000016984C
:1000F000000000000000089501BB179A00000000F6
:100100000000169A00000000000016980000000091
:100110000000179808950F93002700BB01BB159AA4
:100120000000169A0000000000000FB1169807FDAD
:10013000F7CF15980FEF00BB0F9108958F939F9302
:100140009FE08CE90197F1F79F918F910895F6DF79
:10015000F5DFF4DFF3DFF2DF0895F9DFF8DFF7DF33
:10016000F6DFF5DF0895F9DFF8DFF7DFF6DF089552
:10017000FADFF9DFF8DFF7DFF6DF0895F9DFF8DF00
:020180000895E0
:00000001FF
