:020000020000FC
:100000000C9404000C949C000FEF0DBF01E20EBF96
:100010000FEF00BB01B9002701BB02B940EF47B9A0
:1000200048E340930A0148E04DB9442740939900C2
:100030004093290140932B0140932D014093980058
:100040004093280140932A0140932C0141E04093C2
:10005000210149EA4093200141E04093910041E8A9
:10006000409390004424552466247724882708E38D
:10007000B0D1C9D1E4D108E3ACD1C5D1D7D108E31F
:10008000A8D1C1D108E3A5D1BED108E0A2D1BBD18E
:1000900001E09FD1B8D106E09CD1B5D10CE099D157
:1000A000B2D103E5A1D1AFD10AE39ED1ACD104E82E
:1000B00090D1A9D107E598D1A6D101E395D1A3D1DB
:1000C00007E887D1A0D107E58FD19DD102E38CD17C
:1000D0009AD10AE87ED197D107E586D194D103E37E
:1000E00083D191D10DE875D18ED107E57DD18BD12A
:1000F00004E37AD188D105EC6CD185D100E374D1C9
:1001000082D108EC66D17FD100E36ED17CD10BECBB
:1001100060D179D100E368D176D10EEC5AD173D198
:1001200000E362D170D141E0409369004DB341607A
:100130004DBB78940C94D3004F935F934FB74F937C
:1001400044274424552466247724405D05EC41D19E
:100150005AD1042F49D157D108EC3BD154D1042FA7
:1001600043D151D10BEC35D14ED1042F3DD14BD1E0
:100170000EEC2FD148D1042F37D145D100E829D139
:1001800042D101E231D13FD14427409398004093BE
:10019000280140932A0140932C0162D14F914FBF17
:1001A0005F914F9118958030D9F100E812D12BD191
:1001B0000CE41AD128D1642D605D05EC0AD123D15D
:1001C000062F12D120D1642D7FE3679F0092280172
:1001D000652D605D08ECFDD016D1062F05D113D139
:1001E000652D7FE3679F00922A01662D605D0BEC11
:1001F000F0D009D1062FF8D006D1662D7FE3679F96
:1002000000922C01672D605D0EECE3D0FCD0062F30
:10021000EBD0F9D0672D7FE3679F0092980020D143
:1002200088273FEE1127143019F038B94FEF02C07C
:100230000C94D3004A95F1F746B14F704F3031F12D
:1002400021E000270C9430010C944A010C94B10178
:100250000C94BF010C94CD010C94DB010C94420171
:100260000430A1F0542F522369F40330B9F3023063
:1002700059F38395103051F3113051F3123051F38B
:10028000133051F30395220F0C943001330F139563
:100290000C9413018827103021F0113091F10C9447
:1002A000D30000E896D0AFD003E49ED0ACD043E0BA
:1002B000442E542E642E742E405D05EC8AD0A3D0BB
:1002C000042F92D0A0D008EC84D09DD0042F8CD0E5
:1002D0009AD00BEC7ED097D0042F86D094D00EEC21
:1002E00078D091D0042F80D08ED04FEF40939800DB
:1002F0004093280140932A0140932C01B1D00C94E3
:10030000D30000E866D07FD003E46ED07CD04427D1
:10031000442E542E642E742E405D05EC5AD073D0BA
:10032000042F62D070D008EC54D06DD0042F5CD074
:100330006AD00BEC4ED067D0042F56D064D00EECB0
:1003400048D061D0042F50D05ED04427409398000D
:100350004093280140932A0140932C0181D00C94B2
:10036000D300003031F060E0461609F04A940C9456
:10037000420163E04616D9F343940C9442010030E5
:1003800031F060E0561609F05A940C94420163E093
:100390005616D9F353940C944201003031F060E0CA
:1003A000661609F06A940C94420163E06616D9F36C
:1003B00063940C944201003031F060E0761609F04D
:1003C0007A940C94D30063E07616D9F373940C946A
:1003D000420101BB0000169A0000000000001698C0
:1003E000000000000000089501BB179A0000000003
:1003F0000000169A0000000000001698000000009F
:100400000000179808950F93002700BB01BB159AB1
:100410000000169A0000000000000FB1169807FDBA
:10042000F7CF15980FEF00BB0F9108958F939F930F
:100430009FE08CE90197F1F79F918F910895F6DF86
:10044000F5DFF4DFF3DFF2DF0895F9DFF8DFF7DF40
:10045000F6DFF5DF0895F9DFF8DFF7DFF6DF08955F
:0A046000FADFF9DFF8DFF7DF089597
:00000001FF
