:020000020000FC
:100000000C9404000C949B000FEF0DBF01E20EBF97
:100010000FEF00BB01B9002701BB02B940EF47B9A0
:1000200048E340930A0148E04DB9442740939900C2
:100030004093290140932B0140932D014093980058
:100040004093280140932A0140932C0141E04093C2
:10005000210149EA4093200141E04093910041E8A9
:1000600040939000442455246624772408E311D259
:100070002AD245D208E30DD226D238D208E309D2DB
:1000800022D208E306D21FD208E003D21CD201E03C
:1000900000D219D206E0FDD116D20CE0FAD113D26B
:1000A00003E502D210D20AE3FFD10DD204E8F1D168
:1000B0000AD207E5F9D107D201E3F6D104D207E865
:1000C000E8D101D207E5F0D1FED102E3EDD1FBD1B9
:1000D0000AE8DFD1F8D107E5E7D1F5D103E3E4D1B0
:1000E000F2D10DE8D6D1EFD107E5DED1ECD104E3B2
:1000F000DBD1E9D105ECCDD1E6D100E3D5D1E3D117
:1001000008ECC7D1E0D100E3CFD1DDD10BECC1D1F8
:10011000DAD100E3C9D1D7D10EECBBD1D4D100E301
:10012000C3D1D1D141E0409369004DB341604DBB93
:1001300078940C94D2004F935F934FB74F9344271A
:100140004424552466247724405D05ECA2D1BBD11C
:10015000042FAAD1B8D108EC9CD1B5D1042FA4D1D9
:10016000B2D10BEC96D1AFD1042F9ED1ACD10EEC15
:1001700090D1A9D1042F98D1A6D100E88AD1A3D1DA
:1001800001E292D1A0D144274093980040932801E6
:1001900040932A0140932C01C3D14F914FBF5F91EF
:1001A0004F9118953FEE11271430E1F338B94FEF16
:1001B0004A95F1F746B14F704F3059F021E00027D2
:1001C000043039F0542F522351F00395220F0C9430
:1001D000E000330F13950C94D4000C94D20003303C
:1001E000E1F3023081F0103031F0113031F0123093
:1001F00031F0133031F00C9469010C94A1010C948E
:10020000D9010C941102103021F0113091F10C94AD
:10021000D20000E83ED157D103E446D154D143E0A7
:10022000442E542E642E742E405D05EC32D14BD1F9
:10023000042F3AD148D108EC2CD145D1042F34D128
:1002400042D10BEC26D13FD1042F2ED13CD10EEC64
:1002500020D139D1042F28D136D14FEF40939800C7
:100260004093280140932A0140932C0159D10C94CA
:10027000D20000E80ED127D103E416D124D14427BF
:10028000442E542E642E742E405D05EC02D11BD1F9
:10029000042F0AD118D108ECFCD015D1042F04D1B9
:1002A00012D10BECF6D00FD1042FFED00CD10EECF6
:1002B000F0D009D1042FF8D006D1442740939800FC
:1002C0004093280140932A0140932C0129D10C949A
:1002D000D2000030E1F040E04416B9F04A94442DD9
:1002E000405D05ECD6D0EFD0042FDED0ECD000E896
:1002F000D0D0E9D00CE4D8D0E6D0442D5FE3459FC0
:10030000009228010DD10C94D2000C94D20043E04D
:100310004416D9F34394442D405D05ECBAD0D3D0B4
:10032000042FC2D0D0D000E8B4D0CDD00CE4BCD0E3
:10033000CAD0442D5FE3459F00922801F1D00C9470
:10034000D2000030E1F040E05416B9F05A94452D47
:10035000405D08EC9ED0B7D0042FA6D0B4D000E802
:1003600098D0B1D00CE4A0D0AED0452D5FE3459F2E
:1003700000922A01D5D00C94D2000C94D20043E014
:100380005416D9F35394452D405D08EC82D09BD090
:10039000042F8AD098D000E87CD095D00CE484D08B
:1003A00092D0452D5FE3459F00922A01B9D00C946D
:1003B000D2000030E1F040E06416B9F06A94462DB6
:1003C000405D0BEC66D07FD0042F6ED07CD000E86F
:1003D00060D079D00CE468D076D0462D5FE3459F9D
:1003E00000922C019DD00C94D2000C94D20043E0DA
:1003F0006416D9F36394462D405D0BEC4AD063D06C
:10040000042F52D060D000E844D05DD00CE44CD032
:100410005AD0462D5FE3459F00922C0181D00C9469
:10042000D2000030E1F040E07416B9F07A94472D24
:10043000405D0EEC2ED047D0042F36D044D000E8DB
:1004400028D041D00CE430D03ED0472D5FE3459F0B
:100450000092980065D00C94D2000C94D20043E036
:100460007416D9F37394472D405D0EEC12D02BD047
:10047000042F1AD028D000E80CD025D00CE414D0DA
:1004800022D0472D5FE3459F0092980049D00C94FD
:10049000D20001BB0000169A000000000000169870
:1004A000000000000000089501BB179A0000000042
:1004B0000000169A000000000000169800000000DE
:1004C0000000179808950F93002700BB01BB159AF1
:1004D0000000169A0000000000000FB1169807FDFA
:1004E000F7CF15980FEF00BB0F9108958F939F934F
:1004F0009FE08CE90197F1F79F918F910895F6DFC6
:10050000F5DFF4DFF3DFF2DF0895F9DFF8DFF7DF7F
:10051000F6DFF5DF0895F9DFF8DFF7DFF6DF08959E
:0A052000FADFF9DFF8DFF7DF0895D6
:00000001FF
